{
  "contractName": "LaunchPadVault",
  "abi": [
    {
      "inputs": [],
      "stateMutability": "nonpayable",
      "type": "constructor"
    },
    {
      "inputs": [],
      "name": "launchPadToken",
      "outputs": [
        {
          "internalType": "contract IERC20",
          "name": "",
          "type": "address"
        }
      ],
      "stateMutability": "view",
      "type": "function"
    },
    {
      "inputs": [],
      "name": "name",
      "outputs": [
        {
          "internalType": "string",
          "name": "",
          "type": "string"
        }
      ],
      "stateMutability": "view",
      "type": "function"
    },
    {
      "inputs": [],
      "name": "owner",
      "outputs": [
        {
          "internalType": "address",
          "name": "",
          "type": "address"
        }
      ],
      "stateMutability": "view",
      "type": "function"
    },
    {
      "inputs": [
        {
          "internalType": "address",
          "name": "",
          "type": "address"
        }
      ],
      "name": "stakers",
      "outputs": [
        {
          "internalType": "uint256",
          "name": "stakingBalance",
          "type": "uint256"
        },
        {
          "internalType": "bool",
          "name": "hasStaked",
          "type": "bool"
        },
        {
          "internalType": "bool",
          "name": "isStaking",
          "type": "bool"
        },
        {
          "internalType": "uint256",
          "name": "shares",
          "type": "uint256"
        }
      ],
      "stateMutability": "view",
      "type": "function"
    },
    {
      "inputs": [],
      "name": "totalBalance",
      "outputs": [
        {
          "internalType": "uint256",
          "name": "",
          "type": "uint256"
        }
      ],
      "stateMutability": "view",
      "type": "function"
    },
    {
      "inputs": [
        {
          "internalType": "uint256",
          "name": "_amount",
          "type": "uint256"
        }
      ],
      "name": "stakeTokens",
      "outputs": [],
      "stateMutability": "nonpayable",
      "type": "function"
    },
    {
      "inputs": [
        {
          "internalType": "uint256",
          "name": "_amount",
          "type": "uint256"
        }
      ],
      "name": "unstakeTokens",
      "outputs": [],
      "stateMutability": "nonpayable",
      "type": "function"
    },
    {
      "inputs": [
        {
          "internalType": "uint256",
          "name": "_amount",
          "type": "uint256"
        },
        {
          "internalType": "address",
          "name": "_multiSig",
          "type": "address"
        }
      ],
      "name": "borrow",
      "outputs": [],
      "stateMutability": "nonpayable",
      "type": "function"
    }
  ],
  "bytecode": "0x60806040526040518060400160405280600e81526020017f4c61756e63685061645661756c740000000000000000000000000000000000008152506000908051906020019062000051929190620000fc565b503480156200005f57600080fd5b507386189e1e94a245d57792069e0d8c9c195e85e579600360006101000a81548173ffffffffffffffffffffffffffffffffffffffff021916908373ffffffffffffffffffffffffffffffffffffffff16021790555033600160006101000a81548173ffffffffffffffffffffffffffffffffffffffff021916908373ffffffffffffffffffffffffffffffffffffffff16021790555062000211565b8280546200010a90620001db565b90600052602060002090601f0160209004810192826200012e57600085556200017a565b82601f106200014957805160ff19168380011785556200017a565b828001600101855582156200017a579182015b82811115620001795782518255916020019190600101906200015c565b5b5090506200018991906200018d565b5090565b5b80821115620001a85760008160009055506001016200018e565b5090565b7f4e487b7100000000000000000000000000000000000000000000000000000000600052602260045260246000fd5b60006002820490506001821680620001f457607f821691505b602082108114156200020b576200020a620001ac565b5b50919050565b610ce880620002216000396000f3fe608060405234801561001057600080fd5b50600436106100885760003560e01c80638da5cb5b1161005b5780638da5cb5b146100ff5780639168ae721461011d5780639ef5935b14610150578063ad7a672f1461016e57610088565b806306fdde031461008d5780634b3fd148146100ab578063608e4dd0146100c75780637547c7a3146100e3575b600080fd5b61009561018c565b6040516100a29190610718565b60405180910390f35b6100c560048036038101906100c091906107d3565b61021a565b005b6100e160048036038101906100dc9190610813565b61021e565b005b6100fd60048036038101906100f89190610813565b610431565b005b6101076105e3565b604051610114919061084f565b60405180910390f35b6101376004803603810190610132919061086a565b610609565b60405161014794939291906108c1565b60405180910390f35b610158610653565b6040516101659190610965565b60405180910390f35b610176610679565b6040516101839190610980565b60405180910390f35b60008054610199906109ca565b80601f01602080910402602001604051908101604052809291908181526020018280546101c5906109ca565b80156102125780601f106101e757610100808354040283529160200191610212565b820191906000526020600020905b8154815290600101906020018083116101f557829003601f168201915b505050505081565b5050565b60011515600460003373ffffffffffffffffffffffffffffffffffffffff1673ffffffffffffffffffffffffffffffffffffffff16815260200190815260200160002060010160009054906101000a900460ff161515146102b4576040517f08c379a00000000000000000000000000000000000000000000000000000000081526004016102ab90610a48565b60405180910390fd5b6000600460003373ffffffffffffffffffffffffffffffffffffffff1673ffffffffffffffffffffffffffffffffffffffff1681526020019081526020016000209050600081600001541161033e576040517f08c379a000000000000000000000000000000000000000000000000000000000815260040161033590610ab4565b60405180910390fd5b600360009054906101000a900473ffffffffffffffffffffffffffffffffffffffff1673ffffffffffffffffffffffffffffffffffffffff1663a9059cbb33846040518363ffffffff1660e01b815260040161039b929190610ad4565b6020604051808303816000875af11580156103ba573d6000803e3d6000fd5b505050506040513d601f19601f820116820180604052508101906103de9190610b29565b5081600260008282546103f19190610b85565b925050819055508181600001546104089190610b85565b816000018190555060008160010160016101000a81548160ff0219169083151502179055505050565b60008111610474576040517f08c379a000000000000000000000000000000000000000000000000000000000815260040161046b90610c05565b60405180910390fd5b600360009054906101000a900473ffffffffffffffffffffffffffffffffffffffff1673ffffffffffffffffffffffffffffffffffffffff166323b872dd3330846040518463ffffffff1660e01b81526004016104d393929190610c25565b6020604051808303816000875af11580156104f2573d6000803e3d6000fd5b505050506040513d601f19601f820116820180604052508101906105169190610b29565b506000600460003373ffffffffffffffffffffffffffffffffffffffff1673ffffffffffffffffffffffffffffffffffffffff16815260200190815260200160002090508181600001600082825461056e9190610c5c565b9250508190555081600260008282546105879190610c5c565b925050819055508060010160009054906101000a900460ff166105c25760018160010160006101000a81548160ff0219169083151502179055505b60018160010160016101000a81548160ff0219169083151502179055505050565b600160009054906101000a900473ffffffffffffffffffffffffffffffffffffffff1681565b60046020528060005260406000206000915090508060000154908060010160009054906101000a900460ff16908060010160019054906101000a900460ff16908060020154905084565b600360009054906101000a900473ffffffffffffffffffffffffffffffffffffffff1681565b60025481565b600081519050919050565b600082825260208201905092915050565b60005b838110156106b957808201518184015260208101905061069e565b838111156106c8576000848401525b50505050565b6000601f19601f8301169050919050565b60006106ea8261067f565b6106f4818561068a565b935061070481856020860161069b565b61070d816106ce565b840191505092915050565b6000602082019050818103600083015261073281846106df565b905092915050565b600080fd5b6000819050919050565b6107528161073f565b811461075d57600080fd5b50565b60008135905061076f81610749565b92915050565b600073ffffffffffffffffffffffffffffffffffffffff82169050919050565b60006107a082610775565b9050919050565b6107b081610795565b81146107bb57600080fd5b50565b6000813590506107cd816107a7565b92915050565b600080604083850312156107ea576107e961073a565b5b60006107f885828601610760565b9250506020610809858286016107be565b9150509250929050565b6000602082840312156108295761082861073a565b5b600061083784828501610760565b91505092915050565b61084981610795565b82525050565b60006020820190506108646000830184610840565b92915050565b6000602082840312156108805761087f61073a565b5b600061088e848285016107be565b91505092915050565b6108a08161073f565b82525050565b60008115159050919050565b6108bb816108a6565b82525050565b60006080820190506108d66000830187610897565b6108e360208301866108b2565b6108f060408301856108b2565b6108fd6060830184610897565b95945050505050565b6000819050919050565b600061092b61092661092184610775565b610906565b610775565b9050919050565b600061093d82610910565b9050919050565b600061094f82610932565b9050919050565b61095f81610944565b82525050565b600060208201905061097a6000830184610956565b92915050565b60006020820190506109956000830184610897565b92915050565b7f4e487b7100000000000000000000000000000000000000000000000000000000600052602260045260246000fd5b600060028204905060018216806109e257607f821691505b602082108114156109f6576109f561099b565b5b50919050565b7f48617665206e6f74207374616b6572206265666f726500000000000000000000600082015250565b6000610a3260168361068a565b9150610a3d826109fc565b602082019050919050565b60006020820190508181036000830152610a6181610a25565b9050919050565b7f7374616b696e672062616c616e63652063616e6e6f7420626520300000000000600082015250565b6000610a9e601b8361068a565b9150610aa982610a68565b602082019050919050565b60006020820190508181036000830152610acd81610a91565b9050919050565b6000604082019050610ae96000830185610840565b610af66020830184610897565b9392505050565b610b06816108a6565b8114610b1157600080fd5b50565b600081519050610b2381610afd565b92915050565b600060208284031215610b3f57610b3e61073a565b5b6000610b4d84828501610b14565b91505092915050565b7f4e487b7100000000000000000000000000000000000000000000000000000000600052601160045260246000fd5b6000610b908261073f565b9150610b9b8361073f565b925082821015610bae57610bad610b56565b5b828203905092915050565b7f616d6f756e742063616e6e6f7420626520300000000000000000000000000000600082015250565b6000610bef60128361068a565b9150610bfa82610bb9565b602082019050919050565b60006020820190508181036000830152610c1e81610be2565b9050919050565b6000606082019050610c3a6000830186610840565b610c476020830185610840565b610c546040830184610897565b949350505050565b6000610c678261073f565b9150610c728361073f565b9250827fffffffffffffffffffffffffffffffffffffffffffffffffffffffffffffffff03821115610ca757610ca6610b56565b5b82820190509291505056fea264697066735822122090c99c4b99dcff944f06190a11763acba767844ac0e9fe2ce647d7570557e6fe64736f6c634300080b0033",
  "immutableReferences": {},
  "source": "// SPDX-License-Identifier: MIT\r\npragma solidity ^0.8.0;\r\n\r\nimport \"@openzeppelin/contracts/token/ERC20/IERC20.sol\";\r\n\r\nimport { MockLaunchpadToken } from \"./MockLaunchpadToken.sol\";\r\n\r\ncontract LaunchPadVault {\r\n    string public name = \"LaunchPadVault\";\r\n\r\n    address public owner;\r\n\r\n    uint256 public totalBalance;\r\n\r\n    IERC20 public launchPadToken;\r\n\r\n    struct Staker {\r\n      uint256 stakingBalance;\r\n      bool hasStaked;\r\n      bool isStaking;\r\n      uint256 shares;\r\n    }\r\n\r\n    mapping(address => Staker) public stakers;\r\n    \r\n    constructor() public {\r\n        launchPadToken = IERC20(0x86189e1E94a245D57792069E0D8c9C195e85E579);\r\n        owner = msg.sender;\r\n    }\r\n\r\n    function calculateShareAmount(address _staker) private view returns (uint256) {\r\n      return stakers[_staker].stakingBalance / totalBalance;\r\n    } \r\n// function getTotalBalance() public returns(uint256){\r\n//   return totalBalance;\r\n// }\r\n    function stakeTokens(uint _amount) public {\r\n        // Require amount greater than 0\r\n        require(_amount > 0, \"amount cannot be 0\");\r\n\r\n        // Trasnfer Mock MockLaunchpadToken tokens to this contract for staking\r\n        launchPadToken.transferFrom(msg.sender, address(this), _amount);\r\n\r\n        Staker storage _currentStaker = stakers[msg.sender];\r\n\r\n        // Update staking balance\r\n        _currentStaker.stakingBalance += _amount;\r\n\r\n        // Increase totalBalance\r\n        totalBalance += _amount;\r\n\r\n        // Add user to stakers array *only* if they haven't staked already\r\n        if(!_currentStaker.hasStaked) {\r\n            _currentStaker.hasStaked = true;\r\n        }\r\n\r\n        // Update staking status\r\n        _currentStaker.isStaking = true;\r\n    }\r\n\r\n    // Unstaking Tokens (Withdraw)\r\n    function unstakeTokens(uint256 _amount) public {\r\n        require(stakers[msg.sender].hasStaked == true, \"Have not staker before\");\r\n\r\n        Staker storage _currentStaker = stakers[msg.sender];\r\n\r\n        // Require amount greater than 0\r\n        require(_currentStaker.stakingBalance > 0, \"staking balance cannot be 0\");\r\n\r\n        // Transfer MockLaunchpadToken tokens to this contract for staking\r\n        launchPadToken.transfer(msg.sender, _amount);\r\n\r\n        // decrement totalBalance\r\n        totalBalance -= _amount;\r\n\r\n        // Reset staking balance\r\n        _currentStaker.stakingBalance = _currentStaker.stakingBalance - _amount;\r\n\r\n        // Update staking status\r\n        _currentStaker.isStaking = false;\r\n    }\r\n\r\n    function borrow(uint256 _amount, address _multiSig) public {\r\n      // the multisig wallet can withdraw up to a certain amont of tokens\r\n      // dictated by the launchpad\r\n    }\r\n\r\n}\r\n\r\n",
  "sourcePath": "C:/Users/rceka/Desktop/Ape Fuel/moralis/ethereum-boilerplate/Truffle/contracts/LaunchPadVault.sol",
  "compiler": {
    "name": "solc",
    "version": "0.8.11+commit.d7f03943.Emscripten.clang"
  },
  "schemaVersion": "3.4.1",
  "updatedAt": "2022-02-06T22:26:25.278Z",
  "devdoc": {
    "kind": "dev",
    "methods": {},
    "version": 1
  },
  "userdoc": {
    "kind": "user",
    "methods": {},
    "version": 1
  }
}